{
  "contractName": "Car_lifeCycle",
  "abi": [
    {
      "constant": false,
      "inputs": [],
      "name": "stop",
      "outputs": [
        {
          "name": "",
          "type": "bool"
        }
      ],
      "payable": false,
      "stateMutability": "nonpayable",
      "type": "function"
    },
    {
      "constant": false,
      "inputs": [],
      "name": "withdraw",
      "outputs": [],
      "payable": false,
      "stateMutability": "nonpayable",
      "type": "function"
    },
    {
      "constant": true,
      "inputs": [
        {
          "name": "",
          "type": "uint256"
        }
      ],
      "name": "vins",
      "outputs": [
        {
          "name": "",
          "type": "uint256"
        }
      ],
      "payable": false,
      "stateMutability": "view",
      "type": "function"
    },
    {
      "constant": true,
      "inputs": [],
      "name": "stopped",
      "outputs": [
        {
          "name": "",
          "type": "bool"
        }
      ],
      "payable": false,
      "stateMutability": "view",
      "type": "function"
    },
    {
      "constant": true,
      "inputs": [],
      "name": "numMotorbikes",
      "outputs": [
        {
          "name": "",
          "type": "uint256"
        }
      ],
      "payable": false,
      "stateMutability": "view",
      "type": "function"
    },
    {
      "constant": false,
      "inputs": [],
      "name": "acceptOwnership",
      "outputs": [],
      "payable": false,
      "stateMutability": "nonpayable",
      "type": "function"
    },
    {
      "constant": true,
      "inputs": [],
      "name": "owner",
      "outputs": [
        {
          "name": "",
          "type": "address"
        }
      ],
      "payable": false,
      "stateMutability": "view",
      "type": "function"
    },
    {
      "constant": false,
      "inputs": [],
      "name": "start",
      "outputs": [
        {
          "name": "",
          "type": "bool"
        }
      ],
      "payable": false,
      "stateMutability": "nonpayable",
      "type": "function"
    },
    {
      "constant": true,
      "inputs": [],
      "name": "newOwner",
      "outputs": [
        {
          "name": "",
          "type": "address"
        }
      ],
      "payable": false,
      "stateMutability": "view",
      "type": "function"
    },
    {
      "constant": true,
      "inputs": [
        {
          "name": "",
          "type": "uint256"
        }
      ],
      "name": "motorbikeMap",
      "outputs": [
        {
          "name": "vin",
          "type": "uint256"
        },
        {
          "name": "year",
          "type": "uint256"
        },
        {
          "name": "model",
          "type": "string"
        },
        {
          "name": "make",
          "type": "string"
        },
        {
          "name": "capacity",
          "type": "uint256"
        },
        {
          "name": "owner",
          "type": "address"
        },
        {
          "name": "buyer",
          "type": "address"
        },
        {
          "name": "status",
          "type": "uint8"
        },
        {
          "name": "price",
          "type": "uint256"
        }
      ],
      "payable": false,
      "stateMutability": "view",
      "type": "function"
    },
    {
      "constant": false,
      "inputs": [
        {
          "name": "_newOwner",
          "type": "address"
        }
      ],
      "name": "transferOwnership",
      "outputs": [],
      "payable": false,
      "stateMutability": "nonpayable",
      "type": "function"
    },
    {
      "inputs": [],
      "payable": false,
      "stateMutability": "nonpayable",
      "type": "constructor"
    },
    {
      "payable": false,
      "stateMutability": "nonpayable",
      "type": "fallback"
    },
    {
      "anonymous": false,
      "inputs": [
        {
          "indexed": false,
          "name": "_vin",
          "type": "uint256"
        },
        {
          "indexed": false,
          "name": "_owner",
          "type": "address"
        }
      ],
      "name": "NewBike",
      "type": "event"
    },
    {
      "anonymous": false,
      "inputs": [
        {
          "indexed": false,
          "name": "_vin",
          "type": "uint256"
        }
      ],
      "name": "TransferVehicle",
      "type": "event"
    },
    {
      "anonymous": false,
      "inputs": [
        {
          "indexed": false,
          "name": "_vin",
          "type": "uint256"
        }
      ],
      "name": "ForSale",
      "type": "event"
    },
    {
      "anonymous": false,
      "inputs": [
        {
          "indexed": false,
          "name": "_vin",
          "type": "uint256"
        }
      ],
      "name": "Sold",
      "type": "event"
    },
    {
      "anonymous": false,
      "inputs": [
        {
          "indexed": false,
          "name": "_fee",
          "type": "uint256"
        }
      ],
      "name": "Fee",
      "type": "event"
    },
    {
      "anonymous": false,
      "inputs": [],
      "name": "Stopped",
      "type": "event"
    },
    {
      "anonymous": false,
      "inputs": [
        {
          "indexed": true,
          "name": "_from",
          "type": "address"
        },
        {
          "indexed": true,
          "name": "_to",
          "type": "address"
        }
      ],
      "name": "OwnershipTransferred",
      "type": "event"
    },
    {
      "constant": false,
      "inputs": [
        {
          "name": "_vin",
          "type": "uint256"
        },
        {
          "name": "_year",
          "type": "uint256"
        },
        {
          "name": "_model",
          "type": "string"
        },
        {
          "name": "_make",
          "type": "string"
        },
        {
          "name": "_capacity",
          "type": "uint256"
        }
      ],
      "name": "registerMotorbike",
      "outputs": [],
      "payable": false,
      "stateMutability": "nonpayable",
      "type": "function"
    },
    {
      "constant": false,
      "inputs": [
        {
          "name": "_vin",
          "type": "uint256"
        },
        {
          "name": "_price",
          "type": "uint256"
        }
      ],
      "name": "sellBike",
      "outputs": [],
      "payable": false,
      "stateMutability": "nonpayable",
      "type": "function"
    },
    {
      "constant": false,
      "inputs": [
        {
          "name": "vin",
          "type": "uint256"
        }
      ],
      "name": "buyBike",
      "outputs": [],
      "payable": true,
      "stateMutability": "payable",
      "type": "function"
    },
    {
      "constant": false,
      "inputs": [
        {
          "name": "_vin",
          "type": "uint256"
        },
        {
          "name": "_newOwner",
          "type": "address"
        }
      ],
      "name": "transferBike",
      "outputs": [
        {
          "name": "",
          "type": "string"
        }
      ],
      "payable": false,
      "stateMutability": "nonpayable",
      "type": "function"
    },
    {
      "constant": true,
      "inputs": [
        {
          "name": "_vin",
          "type": "uint256"
        }
      ],
      "name": "fetchBike",
      "outputs": [
        {
          "name": "model",
          "type": "string"
        },
        {
          "name": "make",
          "type": "string"
        },
        {
          "name": "vin",
          "type": "uint256"
        },
        {
          "name": "year",
          "type": "uint256"
        },
        {
          "name": "status",
          "type": "uint256"
        },
        {
          "name": "price",
          "type": "uint256"
        },
        {
          "name": "owner",
          "type": "address"
        },
        {
          "name": "buyer",
          "type": "address"
        },
        {
          "name": "capacity",
          "type": "uint256"
        }
      ],
      "payable": false,
      "stateMutability": "view",
      "type": "function"
    },
    {
      "constant": true,
      "inputs": [
        {
          "name": "_vin",
          "type": "uint256"
        }
      ],
      "name": "getBikeOwner",
      "outputs": [
        {
          "name": "",
          "type": "address"
        }
      ],
      "payable": false,
      "stateMutability": "view",
      "type": "function"
    },
    {
      "constant": true,
      "inputs": [
        {
          "name": "_vin",
          "type": "uint256"
        }
      ],
      "name": "getMake",
      "outputs": [
        {
          "name": "",
          "type": "string"
        }
      ],
      "payable": false,
      "stateMutability": "view",
      "type": "function"
    },
    {
      "constant": true,
      "inputs": [
        {
          "name": "_vin",
          "type": "uint256"
        }
      ],
      "name": "getModel",
      "outputs": [
        {
          "name": "",
          "type": "string"
        }
      ],
      "payable": false,
      "stateMutability": "view",
      "type": "function"
    },
    {
      "constant": true,
      "inputs": [
        {
          "name": "_vin",
          "type": "uint256"
        }
      ],
      "name": "getYear",
      "outputs": [
        {
          "name": "",
          "type": "uint256"
        }
      ],
      "payable": false,
      "stateMutability": "view",
      "type": "function"
    },
    {
      "constant": true,
      "inputs": [],
      "name": "getVins",
      "outputs": [
        {
          "name": "",
          "type": "uint256[]"
        }
      ],
      "payable": false,
      "stateMutability": "view",
      "type": "function"
    }
  ],
  "bytecode": "0x60806040526000600160146101000a81548160ff02191690831515021790555034801561002b57600080fd5b50336000806101000a81548173ffffffffffffffffffffffffffffffffffffffff021916908373ffffffffffffffffffffffffffffffffffffffff1602179055506000600481905550612208806100836000396000f30060806040526004361061011d576000357c0100000000000000000000000000000000000000000000000000000000900463ffffffff16806307da68f51461012f57806330f59f0f1461015e5780633ccfd60b1461017e578063631273f314610195578063645d7829146101cc5780636d36169414610239578063731941c8146102df57806375f12b2114610320578063760ae78c1461034f57806379346d8e1461037a57806379ba5097146104475780637a4b70751461045e57806386375db1146105045780638da5cb5b1461057057806392d66313146105c7578063be9a655514610608578063c55247b714610637578063d4ee1d90146106fd578063e26a630914610754578063f1d342b5146108ef578063f2fde38b14610a98575b34801561012957600080fd5b50600080fd5b34801561013b57600080fd5b50610144610adb565b604051808215151515815260200191505060405180910390f35b61017c60048036038101908080359060200190929190505050610be4565b005b34801561018a57600080fd5b50610193610f4b565b005b3480156101a157600080fd5b506101ca6004803603810190808035906020019092919080359060200190929190505050610fe7565b005b3480156101d857600080fd5b506101f760048036038101908080359060200190929190505050611187565b604051808273ffffffffffffffffffffffffffffffffffffffff1673ffffffffffffffffffffffffffffffffffffffff16815260200191505060405180910390f35b34801561024557600080fd5b50610264600480360381019080803590602001909291905050506111cc565b6040518080602001828103825283818151815260200191508051906020019080838360005b838110156102a4578082015181840152602081019050610289565b50505050905090810190601f1680156102d15780820380516001836020036101000a031916815260200191505b509250505060405180910390f35b3480156102eb57600080fd5b5061030a6004803603810190808035906020019092919050505061128a565b6040518082815260200191505060405180910390f35b34801561032c57600080fd5b506103356112ad565b604051808215151515815260200191505060405180910390f35b34801561035b57600080fd5b506103646112c0565b6040518082815260200191505060405180910390f35b34801561038657600080fd5b506104456004803603810190808035906020019092919080359060200190929190803590602001908201803590602001908080601f0160208091040260200160405190810160405280939291908181526020018383808284378201915050505050509192919290803590602001908201803590602001908080601f0160208091040260200160405190810160405280939291908181526020018383808284378201915050505050509192919290803590602001909291905050506112c6565b005b34801561045357600080fd5b5061045c611521565b005b34801561046a57600080fd5b50610489600480360381019080803590602001909291905050506116c0565b6040518080602001828103825283818151815260200191508051906020019080838360005b838110156104c95780820151818401526020810190506104ae565b50505050905090810190601f1680156104f65780820380516001836020036101000a031916815260200191505b509250505060405180910390f35b34801561051057600080fd5b5061051961177e565b6040518080602001828103825283818151815260200191508051906020019060200280838360005b8381101561055c578082015181840152602081019050610541565b505050509050019250505060405180910390f35b34801561057c57600080fd5b506105856117d6565b604051808273ffffffffffffffffffffffffffffffffffffffff1673ffffffffffffffffffffffffffffffffffffffff16815260200191505060405180910390f35b3480156105d357600080fd5b506105f2600480360381019080803590602001909291905050506117fb565b6040518082815260200191505060405180910390f35b34801561061457600080fd5b5061061d611820565b604051808215151515815260200191505060405180910390f35b34801561064357600080fd5b5061068260048036038101908080359060200190929190803573ffffffffffffffffffffffffffffffffffffffff16906020019092919050505061192a565b6040518080602001828103825283818151815260200191508051906020019080838360005b838110156106c25780820151818401526020810190506106a7565b50505050905090810190601f1680156106ef5780820380516001836020036101000a031916815260200191505b509250505060405180910390f35b34801561070957600080fd5b50610712611ace565b604051808273ffffffffffffffffffffffffffffffffffffffff1673ffffffffffffffffffffffffffffffffffffffff16815260200191505060405180910390f35b34801561076057600080fd5b5061077f60048036038101908080359060200190929190505050611af4565b6040518080602001806020018a81526020018981526020018881526020018781526020018673ffffffffffffffffffffffffffffffffffffffff1673ffffffffffffffffffffffffffffffffffffffff1681526020018573ffffffffffffffffffffffffffffffffffffffff1673ffffffffffffffffffffffffffffffffffffffff16815260200184815260200183810383528c818151815260200191508051906020019080838360005b8381101561084557808201518184015260208101905061082a565b50505050905090810190601f1680156108725780820380516001836020036101000a031916815260200191505b5083810382528b818151815260200191508051906020019080838360005b838110156108ab578082015181840152602081019050610890565b50505050905090810190601f1680156108d85780820380516001836020036101000a031916815260200191505b509b50505050505050505050505060405180910390f35b3480156108fb57600080fd5b5061091a60048036038101908080359060200190929190505050611d93565b604051808a815260200189815260200180602001806020018881526020018773ffffffffffffffffffffffffffffffffffffffff1673ffffffffffffffffffffffffffffffffffffffff1681526020018673ffffffffffffffffffffffffffffffffffffffff1673ffffffffffffffffffffffffffffffffffffffff1681526020018560028111156109a857fe5b60ff16815260200184815260200183810383528a818151815260200191508051906020019080838360005b838110156109ee5780820151818401526020810190506109d3565b50505050905090810190601f168015610a1b5780820380516001836020036101000a031916815260200191505b50838103825289818151815260200191508051906020019080838360005b83811015610a54578082015181840152602081019050610a39565b50505050905090810190601f168015610a815780820380516001836020036101000a031916815260200191505b509b50505050505050505050505060405180910390f35b348015610aa457600080fd5b50610ad9600480360381019080803573ffffffffffffffffffffffffffffffffffffffff169060200190929190505050611f5e565b005b60008060009054906101000a900473ffffffffffffffffffffffffffffffffffffffff1673ffffffffffffffffffffffffffffffffffffffff163373ffffffffffffffffffffffffffffffffffffffff16141515610bc7576040517f08c379a00000000000000000000000000000000000000000000000000000000081526004018080602001828103825260218152602001807f4f6e6c79206f776e65722063616e2063616c6c20746869732066756e6374696f81526020017f6e0000000000000000000000000000000000000000000000000000000000000081525060400191505060405180910390fd5b60018060146101000a81548160ff02191690831515021790555090565b600080600160149054906101000a900460ff16151515610c0357600080fd5b8260016002811115610c1157fe5b6003600083815260200190815260200160002060060160149054906101000a900460ff166002811115610c4057fe5b141515610c4c57600080fd5b6003600085815260200190815260200160002060070154803410151515610c7257600080fd5b846000807f92f64ca637d023f354075a4be751b169c1a8a9ccb6d33cdd0cb3520543995727886040518082815260200191505060405180910390a16000600360008a815260200190815260200160002060060160146101000a81548160ff02191690836002811115610ce057fe5b021790555033600360008a815260200190815260200160002060060160006101000a81548173ffffffffffffffffffffffffffffffffffffffff021916908373ffffffffffffffffffffffffffffffffffffffff1602179055506003600089815260200190815260200160002060050160009054906101000a900473ffffffffffffffffffffffffffffffffffffffff16965033600360008a815260200190815260200160002060050160006101000a81548173ffffffffffffffffffffffffffffffffffffffff021916908373ffffffffffffffffffffffffffffffffffffffff1602179055506064610df46005600360008c8152602001908152602001600020600701546120ea90919063ffffffff16565b811515610dfd57fe5b0495507f557809284da7314475b1582804ae28e5f1349efc1fe970ea25d50fce75eb4f43866040518082815260200191505060405180910390a18673ffffffffffffffffffffffffffffffffffffffff166108fc610e7a88600360008d81526020019081526020016000206007015461211b90919063ffffffff16565b9081150290604051600060405180830381858888f19350505050158015610ea5573d6000803e3d6000fd5b506003600084815260200190815260200160002060070154915081340390506003600084815260200190815260200160002060060160009054906101000a900473ffffffffffffffffffffffffffffffffffffffff1673ffffffffffffffffffffffffffffffffffffffff166108fc829081150290604051600060405180830381858888f19350505050158015610f40573d6000803e3d6000fd5b505050505050505050565b600160149054906101000a900460ff161515610f6657600080fd5b6000809054906101000a900473ffffffffffffffffffffffffffffffffffffffff1673ffffffffffffffffffffffffffffffffffffffff166108fc3073ffffffffffffffffffffffffffffffffffffffff16319081150290604051600060405180830381858888f19350505050158015610fe4573d6000803e3d6000fd5b50565b6003600083815260200190815260200160002060050160009054906101000a900473ffffffffffffffffffffffffffffffffffffffff168073ffffffffffffffffffffffffffffffffffffffff163373ffffffffffffffffffffffffffffffffffffffff1614151561105857600080fd5b826000600281111561106657fe5b6003600083815260200190815260200160002060060160149054906101000a900460ff16600281111561109557fe5b1415156110a157600080fd5b7fa96ae0fc3224ebd79eebfe54bd130cc9cb94416cddd1f2386115e00b72532468846040518082815260200191505060405180910390a160016003600086815260200190815260200160002060060160146101000a81548160ff0219169083600281111561110b57fe5b021790555082600360008681526020019081526020016000206007018190555060006003600086815260200190815260200160002060060160006101000a81548173ffffffffffffffffffffffffffffffffffffffff021916908373ffffffffffffffffffffffffffffffffffffffff16021790555050505050565b6000806003600084815260200190815260200160002060050160009054906101000a900473ffffffffffffffffffffffffffffffffffffffff16905080915050919050565b60606000600360008481526020019081526020016000206002019050808054600181600116156101000203166002900480601f01602080910402602001604051908101604052809291908181526020018280546001816001161561010002031660029004801561127d5780601f106112525761010080835404028352916020019161127d565b820191906000526020600020905b81548152906001019060200180831161126057829003601f168201915b5050505050915050919050565b60028181548110151561129957fe5b906000526020600020016000915090505481565b600160149054906101000a900460ff1681565b60045481565b7fc73caef8b4d757c14b15bc8f13d92a7b2fe29e2f74a8a5e32dc2bcacf354a32b8533604051808381526020018273ffffffffffffffffffffffffffffffffffffffff1673ffffffffffffffffffffffffffffffffffffffff1681526020019250505060405180910390a16002859080600181540180825580915050906001820390600052602060002001600090919290919091505550610120604051908101604052808681526020018581526020018481526020018381526020018281526020013373ffffffffffffffffffffffffffffffffffffffff168152602001600073ffffffffffffffffffffffffffffffffffffffff168152602001600060028111156113ce57fe5b81526020016000815250600360008781526020019081526020016000206000820151816000015560208201518160010155604082015181600201908051906020019061141b929190612137565b506060820151816003019080519060200190611438929190612137565b506080820151816004015560a08201518160050160006101000a81548173ffffffffffffffffffffffffffffffffffffffff021916908373ffffffffffffffffffffffffffffffffffffffff16021790555060c08201518160060160006101000a81548173ffffffffffffffffffffffffffffffffffffffff021916908373ffffffffffffffffffffffffffffffffffffffff16021790555060e08201518160060160146101000a81548160ff021916908360028111156114f557fe5b021790555061010082015181600701559050506004600081548092919060010191905055505050505050565b600160009054906101000a900473ffffffffffffffffffffffffffffffffffffffff1673ffffffffffffffffffffffffffffffffffffffff163373ffffffffffffffffffffffffffffffffffffffff1614151561157d57600080fd5b600160009054906101000a900473ffffffffffffffffffffffffffffffffffffffff1673ffffffffffffffffffffffffffffffffffffffff166000809054906101000a900473ffffffffffffffffffffffffffffffffffffffff1673ffffffffffffffffffffffffffffffffffffffff167f8be0079c531659141344cd1fd0a4f28419497f9722a3daafe3b4186f6b6457e060405160405180910390a3600160009054906101000a900473ffffffffffffffffffffffffffffffffffffffff166000806101000a81548173ffffffffffffffffffffffffffffffffffffffff021916908373ffffffffffffffffffffffffffffffffffffffff1602179055506000600160006101000a81548173ffffffffffffffffffffffffffffffffffffffff021916908373ffffffffffffffffffffffffffffffffffffffff160217905550565b60606000600360008481526020019081526020016000206003019050808054600181600116156101000203166002900480601f0160208091040260200160405190810160405280929190818152602001828054600181600116156101000203166002900480156117715780601f1061174657610100808354040283529160200191611771565b820191906000526020600020905b81548152906001019060200180831161175457829003601f168201915b5050505050915050919050565b606060028054806020026020016040519081016040528092919081815260200182805480156117cc57602002820191906000526020600020905b8154815260200190600101908083116117b8575b5050505050905090565b6000809054906101000a900473ffffffffffffffffffffffffffffffffffffffff1681565b6000806003600084815260200190815260200160002060010154905080915050919050565b60008060009054906101000a900473ffffffffffffffffffffffffffffffffffffffff1673ffffffffffffffffffffffffffffffffffffffff163373ffffffffffffffffffffffffffffffffffffffff1614151561190c576040517f08c379a00000000000000000000000000000000000000000000000000000000081526004018080602001828103825260218152602001807f4f6e6c79206f776e65722063616e2063616c6c20746869732066756e6374696f81526020017f6e0000000000000000000000000000000000000000000000000000000000000081525060400191505060405180910390fd5b6000600160146101000a81548160ff02191690831515021790555090565b60606003600084815260200190815260200160002060050160009054906101000a900473ffffffffffffffffffffffffffffffffffffffff168073ffffffffffffffffffffffffffffffffffffffff163373ffffffffffffffffffffffffffffffffffffffff1614151561199d57600080fd5b83600060028111156119ab57fe5b6003600083815260200190815260200160002060060160149054906101000a900460ff1660028111156119da57fe5b1415156119e657600080fd5b600160149054906101000a900460ff16151515611a0257600080fd5b7f98a6da6a6b1b6445e2d99477efe298a4d7042431b3836e820312e45cb8f6fc0e856040518082815260200191505060405180910390a1836003600087815260200190815260200160002060050160006101000a81548173ffffffffffffffffffffffffffffffffffffffff021916908373ffffffffffffffffffffffffffffffffffffffff16021790555060006003600087815260200190815260200160002060060160146101000a81548160ff02191690836002811115611ac157fe5b0217905550505092915050565b600160009054906101000a900473ffffffffffffffffffffffffffffffffffffffff1681565b6060806000806000806000806000600360008b81526020019081526020016000206002018054600181600116156101000203166002900480601f016020809104026020016040519081016040528092919081815260200182805460018160011615610100020316600290048015611bac5780601f10611b8157610100808354040283529160200191611bac565b820191906000526020600020905b815481529060010190602001808311611b8f57829003601f168201915b50505050509850600360008b81526020019081526020016000206003018054600181600116156101000203166002900480601f016020809104026020016040519081016040528092919081815260200182805460018160011615610100020316600290048015611c5d5780601f10611c3257610100808354040283529160200191611c5d565b820191906000526020600020905b815481529060010190602001808311611c4057829003601f168201915b50505050509750600360008b8152602001908152602001600020600001549650600360008b8152602001908152602001600020600101549550600360008b8152602001908152602001600020600701549350600360008b815260200190815260200160002060060160149054906101000a900460ff166002811115611cde57fe5b9450600360008b815260200190815260200160002060050160009054906101000a900473ffffffffffffffffffffffffffffffffffffffff169250600360008b815260200190815260200160002060060160009054906101000a900473ffffffffffffffffffffffffffffffffffffffff169150600360008b81526020019081526020016000206004015490508888888888888888889850985098509850985098509850985098509193959799909294969850565b6003602052806000526040600020600091509050806000015490806001015490806002018054600181600116156101000203166002900480601f016020809104026020016040519081016040528092919081815260200182805460018160011615610100020316600290048015611e4b5780601f10611e2057610100808354040283529160200191611e4b565b820191906000526020600020905b815481529060010190602001808311611e2e57829003601f168201915b505050505090806003018054600181600116156101000203166002900480601f016020809104026020016040519081016040528092919081815260200182805460018160011615610100020316600290048015611ee95780601f10611ebe57610100808354040283529160200191611ee9565b820191906000526020600020905b815481529060010190602001808311611ecc57829003601f168201915b5050505050908060040154908060050160009054906101000a900473ffffffffffffffffffffffffffffffffffffffff16908060060160009054906101000a900473ffffffffffffffffffffffffffffffffffffffff16908060060160149054906101000a900460ff16908060070154905089565b6000809054906101000a900473ffffffffffffffffffffffffffffffffffffffff1673ffffffffffffffffffffffffffffffffffffffff163373ffffffffffffffffffffffffffffffffffffffff16141515612048576040517f08c379a00000000000000000000000000000000000000000000000000000000081526004018080602001828103825260218152602001807f4f6e6c79206f776e65722063616e2063616c6c20746869732066756e6374696f81526020017f6e0000000000000000000000000000000000000000000000000000000000000081525060400191505060405180910390fd5b600073ffffffffffffffffffffffffffffffffffffffff16600160009054906101000a900473ffffffffffffffffffffffffffffffffffffffff1673ffffffffffffffffffffffffffffffffffffffff16141515156120a657600080fd5b80600160006101000a81548173ffffffffffffffffffffffffffffffffffffffff021916908373ffffffffffffffffffffffffffffffffffffffff16021790555050565b60008183029050600083148061210a575081838281151561210757fe5b04145b151561211557600080fd5b92915050565b600082821115151561212c57600080fd5b818303905092915050565b828054600181600116156101000203166002900490600052602060002090601f016020900481019282601f1061217857805160ff19168380011785556121a6565b828001600101855582156121a6579182015b828111156121a557825182559160200191906001019061218a565b5b5090506121b391906121b7565b5090565b6121d991905b808211156121d55760008160009055506001016121bd565b5090565b905600a165627a7a72305820e4f4f0637ee38704ddd94d995eef41227ad8a3d861cfb3821585c2603dcbc80c0029",
  "source": "\npragma solidity ^0.4.23;\n//\n// ----------------------------------------------------------------------------\n// Owned contract\n// ----------------------------------------------------------------------------\ncontract Owned {\n    address public owner;\n    address public newOwner;\n\n    event OwnershipTransferred(address indexed _from, address indexed _to);\n\n    constructor() public {\n        owner = msg.sender;\n    }\n\n    modifier onlyOwner {\n        require (msg.sender == owner, \"Only owner can call this function\");\n        _;\n    }\n\n    function transferOwnership(address _newOwner) public onlyOwner {\n        require(newOwner != address(0));\n        newOwner = _newOwner;\n    }\n\n    function acceptOwnership() public {\n        require(msg.sender == newOwner);\n        emit OwnershipTransferred(owner, newOwner);\n        owner = newOwner;\n        newOwner = address(0);\n    }\n}\n\n//\n// ----------------------------------------------------------------------------\n// Circuit breaker contract\n// ----------------------------------------------------------------------------\n\ncontract CircuitBreaker is Owned {\n\n    bool public stopped = false;\n\n    event Stopped();\n\n    modifier stopInEmergency {require(!stopped);\n        _;}\n\n    modifier onlyInEmergency {require(stopped);\n        _;}\n\n    function withdraw() onlyInEmergency public {\n        owner.transfer(address(this).balance);\n    }\n\n    function stop() onlyOwner public returns (bool) {\n        stopped = true;\n    }\n\n    function start() onlyOwner public returns (bool) {\n        stopped = false;\n    }\n}\n\n// ----------------------------------------------------------------------------\n// Safe maths\n// ----------------------------------------------------------------------------\nlibrary SafeMath {\n    function add(uint a, uint b) internal pure returns (uint c) {\n        c = a + b;\n        require(c >= a);\n    }\n    function sub(uint a, uint b) internal pure returns (uint c) {\n        require(b <= a);\n        c = a - b;\n    }\n    function mul(uint a, uint b) internal pure returns (uint c) {\n        c = a * b;\n        require(a == 0 || c / a == b);\n    }\n    function div(uint a, uint b) internal pure returns (uint c) {\n        require(b > 0);\n        c = a / b;\n    }\n}\n\n//\n// ----------------------------------------------------------------------------\n// Car LifeCycle contract\n// ----------------------------------------------------------------------------\n\ncontract Car_lifeCycle is Owned, CircuitBreaker {\n    using SafeMath for uint;\n    uint[] public vins;\n    mapping(uint => Bike) public motorbikeMap;\n    uint public numMotorbikes;\n    uint constant SALE_FEE_PERCENT = 5;\n\n    constructor() public {\n        numMotorbikes = 0;\n    }\n\n    event NewBike(uint _vin, address _owner);\n    event TransferVehicle(uint _vin);\n    event ForSale(uint _vin);\n    event Sold(uint _vin);\n    event Fee(uint _fee);\n\n    enum Status {RoadWorthy, ForSale, Financed}\n\n    struct Bike {\n        uint vin;\n        uint year;\n        string model;\n        string make;\n        uint capacity;\n        address owner;\n        address buyer;\n        Status status;\n        uint price;\n    }\n\n    modifier paidEnough(uint _price) { require(msg.value >= _price); _;}\n\n    modifier checkValue(uint _vin) {\n        //refund them after pay for item (why it is before, _ checks for logic before func)\n        _;\n        uint _price = motorbikeMap[_vin].price;\n        uint amountToRefund = msg.value - _price;\n        motorbikeMap[_vin].buyer.transfer(amountToRefund);\n    }\n\n    // Check car is set as for Sale by owner\n    modifier forSale(uint _vin) {\n        require (motorbikeMap[_vin].status == Status.ForSale); _;\n    }\n\n    modifier roadWorthy(uint _vin) {\n        require (motorbikeMap[_vin].status == Status.RoadWorthy); _;\n    }\n\n    modifier bikeOwnerOnly(address _owner) {\n        require (msg.sender == _owner);\n        _;\n    }\n\n    function registerMotorbike(uint _vin, uint _year, string _model, string _make, uint _capacity) public {\n        emit NewBike(_vin, msg.sender);\n        vins.push(_vin);\n        motorbikeMap[_vin] = Bike({\n        vin: _vin, year: _year, model: _model, make: _make, owner: msg.sender, buyer: 0, status: Status.RoadWorthy, price: 0, capacity: _capacity\n        });\n        numMotorbikes++;\n    }\n\n    function sellBike(uint _vin, uint _price) bikeOwnerOnly(motorbikeMap[_vin].owner) roadWorthy(_vin) public {\n        emit ForSale(_vin);\n        motorbikeMap[_vin].status = Status.ForSale;\n        motorbikeMap[_vin].price = _price;\n        motorbikeMap[_vin].buyer = 0;\n    }\n\n    function buyBike(uint vin) public stopInEmergency forSale(vin) paidEnough(motorbikeMap[vin].price) checkValue(vin) payable {\n        emit Sold(vin);\n        motorbikeMap[vin].status = Status.RoadWorthy;\n        motorbikeMap[vin].buyer = msg.sender;\n        address owner = motorbikeMap[vin].owner;\n\n        // Transfer ownership across\n        motorbikeMap[vin].owner = msg.sender;\n\n        // send ether to \"owner\"\n        // Take a 5% fee out of the price\n        uint fee = (motorbikeMap[vin].price).mul(SALE_FEE_PERCENT) / 100;\n\n        emit Fee(fee);\n\n        owner.transfer((motorbikeMap[vin].price).sub(fee));\n    }\n\n    function transferBike(uint _vin, address _newOwner) bikeOwnerOnly(motorbikeMap[_vin].owner) roadWorthy(_vin) stopInEmergency public returns (string) {\n        emit TransferVehicle(_vin);\n        motorbikeMap[_vin].owner = _newOwner;\n        motorbikeMap[_vin].status = Status.RoadWorthy;\n    }\n\n    /* Fetch bike info by VIN */\n    function fetchBike(uint _vin) public view returns (string model, string make, uint vin, uint year, uint status, uint price, address owner, address buyer, uint capacity) {\n        model = motorbikeMap[_vin].model;\n        make = motorbikeMap[_vin].make;\n        vin = motorbikeMap[_vin].vin;\n        year = motorbikeMap[_vin].year;\n        price = motorbikeMap[_vin].price;\n        status = uint(motorbikeMap[_vin].status);\n        owner = motorbikeMap[_vin].owner;\n        buyer = motorbikeMap[_vin].buyer;\n        capacity = motorbikeMap[_vin].capacity;\n        return (model, make, vin, year, status, price, owner, buyer, capacity);\n    }\n\n    function getBikeOwner(uint _vin) public constant returns (address) {\n        address owner = motorbikeMap[_vin].owner;\n        return owner;\n    }\n\n    function getMake(uint _vin) public constant returns (string) {\n        string storage vmake = motorbikeMap[_vin].make;\n        return vmake;\n    }\n\n    function getModel(uint _vin) public constant returns (string) {\n        string storage vmodel = motorbikeMap[_vin].model;\n        return vmodel;\n    }\n\n    function getYear(uint _vin) public constant returns (uint) {\n        uint vyear = motorbikeMap[_vin].year;\n        return vyear;\n    }\n\n    function getVins() public view returns (uint[]) {\n        return vins;\n    }\n\n    // Fallback function - Called if other functions don't match call or\n    // sent ether without data\n    // Typically, called when invalid data is sent\n    // Added so ether sent to this contract is reverted if the contract fails\n    function() public {\n        revert();\n    }\n}",
  "sourcePath": "E:/semester_06/blockchain/Car_LifeCycle/contracts/Car_lifeCycle.sol",
  "compiler": {
    "name": "solc",
    "version": "0.4.23+commit.124ca40d.Emscripten.clang"
  },
  "schemaVersion": "3.0.21",
  "updatedAt": "2020-06-14T15:08:21.325Z",
  "networkType": "ethereum",
  "devdoc": {
    "methods": {}
  },
  "userdoc": {
    "methods": {}
  }
}