{
  "contractName": "CircuitBreaker",
  "abi": [
    {
      "constant": true,
      "inputs": [],
      "name": "stopped",
      "outputs": [
        {
          "name": "",
          "type": "bool"
        }
      ],
      "payable": false,
      "stateMutability": "view",
      "type": "function"
    },
    {
      "constant": false,
      "inputs": [],
      "name": "acceptOwnership",
      "outputs": [],
      "payable": false,
      "stateMutability": "nonpayable",
      "type": "function"
    },
    {
      "constant": true,
      "inputs": [],
      "name": "owner",
      "outputs": [
        {
          "name": "",
          "type": "address"
        }
      ],
      "payable": false,
      "stateMutability": "view",
      "type": "function"
    },
    {
      "constant": true,
      "inputs": [],
      "name": "newOwner",
      "outputs": [
        {
          "name": "",
          "type": "address"
        }
      ],
      "payable": false,
      "stateMutability": "view",
      "type": "function"
    },
    {
      "constant": false,
      "inputs": [
        {
          "name": "_newOwner",
          "type": "address"
        }
      ],
      "name": "transferOwnership",
      "outputs": [],
      "payable": false,
      "stateMutability": "nonpayable",
      "type": "function"
    },
    {
      "anonymous": false,
      "inputs": [],
      "name": "Stopped",
      "type": "event"
    },
    {
      "anonymous": false,
      "inputs": [
        {
          "indexed": true,
          "name": "_from",
          "type": "address"
        },
        {
          "indexed": true,
          "name": "_to",
          "type": "address"
        }
      ],
      "name": "OwnershipTransferred",
      "type": "event"
    },
    {
      "constant": false,
      "inputs": [],
      "name": "withdraw",
      "outputs": [],
      "payable": false,
      "stateMutability": "nonpayable",
      "type": "function"
    },
    {
      "constant": false,
      "inputs": [],
      "name": "stop",
      "outputs": [
        {
          "name": "",
          "type": "bool"
        }
      ],
      "payable": false,
      "stateMutability": "nonpayable",
      "type": "function"
    },
    {
      "constant": false,
      "inputs": [],
      "name": "start",
      "outputs": [
        {
          "name": "",
          "type": "bool"
        }
      ],
      "payable": false,
      "stateMutability": "nonpayable",
      "type": "function"
    }
  ],
  "bytecode": "0x60806040526000600160146101000a81548160ff021916908315150217905550336000806101000a81548173ffffffffffffffffffffffffffffffffffffffff021916908373ffffffffffffffffffffffffffffffffffffffff1602179055506108a38061006e6000396000f30060806040526004361061008e576000357c0100000000000000000000000000000000000000000000000000000000900463ffffffff16806307da68f5146100935780633ccfd60b146100c257806375f12b21146100d957806379ba5097146101085780638da5cb5b1461011f578063be9a655514610176578063d4ee1d90146101a5578063f2fde38b146101fc575b600080fd5b34801561009f57600080fd5b506100a861023f565b604051808215151515815260200191505060405180910390f35b3480156100ce57600080fd5b506100d7610348565b005b3480156100e557600080fd5b506100ee6103e4565b604051808215151515815260200191505060405180910390f35b34801561011457600080fd5b5061011d6103f7565b005b34801561012b57600080fd5b50610134610596565b604051808273ffffffffffffffffffffffffffffffffffffffff1673ffffffffffffffffffffffffffffffffffffffff16815260200191505060405180910390f35b34801561018257600080fd5b5061018b6105bb565b604051808215151515815260200191505060405180910390f35b3480156101b157600080fd5b506101ba6106c5565b604051808273ffffffffffffffffffffffffffffffffffffffff1673ffffffffffffffffffffffffffffffffffffffff16815260200191505060405180910390f35b34801561020857600080fd5b5061023d600480360381019080803573ffffffffffffffffffffffffffffffffffffffff1690602001909291905050506106eb565b005b60008060009054906101000a900473ffffffffffffffffffffffffffffffffffffffff1673ffffffffffffffffffffffffffffffffffffffff163373ffffffffffffffffffffffffffffffffffffffff1614151561032b576040517f08c379a00000000000000000000000000000000000000000000000000000000081526004018080602001828103825260218152602001807f4f6e6c79206f776e65722063616e2063616c6c20746869732066756e6374696f81526020017f6e0000000000000000000000000000000000000000000000000000000000000081525060400191505060405180910390fd5b60018060146101000a81548160ff02191690831515021790555090565b600160149054906101000a900460ff16151561036357600080fd5b6000809054906101000a900473ffffffffffffffffffffffffffffffffffffffff1673ffffffffffffffffffffffffffffffffffffffff166108fc3073ffffffffffffffffffffffffffffffffffffffff16319081150290604051600060405180830381858888f193505050501580156103e1573d6000803e3d6000fd5b50565b600160149054906101000a900460ff1681565b600160009054906101000a900473ffffffffffffffffffffffffffffffffffffffff1673ffffffffffffffffffffffffffffffffffffffff163373ffffffffffffffffffffffffffffffffffffffff1614151561045357600080fd5b600160009054906101000a900473ffffffffffffffffffffffffffffffffffffffff1673ffffffffffffffffffffffffffffffffffffffff166000809054906101000a900473ffffffffffffffffffffffffffffffffffffffff1673ffffffffffffffffffffffffffffffffffffffff167f8be0079c531659141344cd1fd0a4f28419497f9722a3daafe3b4186f6b6457e060405160405180910390a3600160009054906101000a900473ffffffffffffffffffffffffffffffffffffffff166000806101000a81548173ffffffffffffffffffffffffffffffffffffffff021916908373ffffffffffffffffffffffffffffffffffffffff1602179055506000600160006101000a81548173ffffffffffffffffffffffffffffffffffffffff021916908373ffffffffffffffffffffffffffffffffffffffff160217905550565b6000809054906101000a900473ffffffffffffffffffffffffffffffffffffffff1681565b60008060009054906101000a900473ffffffffffffffffffffffffffffffffffffffff1673ffffffffffffffffffffffffffffffffffffffff163373ffffffffffffffffffffffffffffffffffffffff161415156106a7576040517f08c379a00000000000000000000000000000000000000000000000000000000081526004018080602001828103825260218152602001807f4f6e6c79206f776e65722063616e2063616c6c20746869732066756e6374696f81526020017f6e0000000000000000000000000000000000000000000000000000000000000081525060400191505060405180910390fd5b6000600160146101000a81548160ff02191690831515021790555090565b600160009054906101000a900473ffffffffffffffffffffffffffffffffffffffff1681565b6000809054906101000a900473ffffffffffffffffffffffffffffffffffffffff1673ffffffffffffffffffffffffffffffffffffffff163373ffffffffffffffffffffffffffffffffffffffff161415156107d5576040517f08c379a00000000000000000000000000000000000000000000000000000000081526004018080602001828103825260218152602001807f4f6e6c79206f776e65722063616e2063616c6c20746869732066756e6374696f81526020017f6e0000000000000000000000000000000000000000000000000000000000000081525060400191505060405180910390fd5b600073ffffffffffffffffffffffffffffffffffffffff16600160009054906101000a900473ffffffffffffffffffffffffffffffffffffffff1673ffffffffffffffffffffffffffffffffffffffff161415151561083357600080fd5b80600160006101000a81548173ffffffffffffffffffffffffffffffffffffffff021916908373ffffffffffffffffffffffffffffffffffffffff160217905550505600a165627a7a7230582093c54d6630ad36a540109f48c1d57c1e07254ed66ee7f2f4b0ba9d37370c39b00029",
  "source": "\npragma solidity ^0.4.23;\n//\n// ----------------------------------------------------------------------------\n// Owned contract\n// ----------------------------------------------------------------------------\ncontract Owned {\n    address public owner;\n    address public newOwner;\n\n    event OwnershipTransferred(address indexed _from, address indexed _to);\n\n    constructor() public {\n        owner = msg.sender;\n    }\n\n    modifier onlyOwner {\n        require (msg.sender == owner, \"Only owner can call this function\");\n        _;\n    }\n\n    function transferOwnership(address _newOwner) public onlyOwner {\n        require(newOwner != address(0));\n        newOwner = _newOwner;\n    }\n\n    function acceptOwnership() public {\n        require(msg.sender == newOwner);\n        emit OwnershipTransferred(owner, newOwner);\n        owner = newOwner;\n        newOwner = address(0);\n    }\n}\n\n//\n// ----------------------------------------------------------------------------\n// Circuit breaker contract\n// ----------------------------------------------------------------------------\n\ncontract CircuitBreaker is Owned {\n\n    bool public stopped = false;\n\n    event Stopped();\n\n    modifier stopInEmergency {require(!stopped);\n        _;}\n\n    modifier onlyInEmergency {require(stopped);\n        _;}\n\n    function withdraw() onlyInEmergency public {\n        owner.transfer(address(this).balance);\n    }\n\n    function stop() onlyOwner public returns (bool) {\n        stopped = true;\n    }\n\n    function start() onlyOwner public returns (bool) {\n        stopped = false;\n    }\n}\n\n// ----------------------------------------------------------------------------\n// Safe maths\n// ----------------------------------------------------------------------------\nlibrary SafeMath {\n    function add(uint a, uint b) internal pure returns (uint c) {\n        c = a + b;\n        require(c >= a);\n    }\n    function sub(uint a, uint b) internal pure returns (uint c) {\n        require(b <= a);\n        c = a - b;\n    }\n    function mul(uint a, uint b) internal pure returns (uint c) {\n        c = a * b;\n        require(a == 0 || c / a == b);\n    }\n    function div(uint a, uint b) internal pure returns (uint c) {\n        require(b > 0);\n        c = a / b;\n    }\n}\n\n//\n// ----------------------------------------------------------------------------\n// Car LifeCycle contract\n// ----------------------------------------------------------------------------\n\ncontract Car_lifeCycle is Owned, CircuitBreaker {\n    using SafeMath for uint;\n    uint[] public vins;\n    mapping(uint => Bike) public motorbikeMap;\n    uint public numMotorbikes;\n    uint constant SALE_FEE_PERCENT = 5;\n\n    constructor() public {\n        numMotorbikes = 0;\n    }\n\n    event NewBike(uint _vin, address _owner);\n    event TransferVehicle(uint _vin);\n    event ForSale(uint _vin);\n    event Sold(uint _vin);\n    event Fee(uint _fee);\n\n    enum Status {RoadWorthy, ForSale, Financed}\n\n    struct Bike {\n        uint vin;\n        uint year;\n        string model;\n        string make;\n        uint capacity;\n        address owner;\n        address buyer;\n        Status status;\n        uint price;\n    }\n\n    modifier paidEnough(uint _price) { require(msg.value >= _price); _;}\n\n    modifier checkValue(uint _vin) {\n        //refund them after pay for item (why it is before, _ checks for logic before func)\n        _;\n        uint _price = motorbikeMap[_vin].price;\n        uint amountToRefund = msg.value - _price;\n        motorbikeMap[_vin].buyer.transfer(amountToRefund);\n    }\n\n    // Check car is set as for Sale by owner\n    modifier forSale(uint _vin) {\n        require (motorbikeMap[_vin].status == Status.ForSale); _;\n    }\n\n    modifier roadWorthy(uint _vin) {\n        require (motorbikeMap[_vin].status == Status.RoadWorthy); _;\n    }\n\n    modifier bikeOwnerOnly(address _owner) {\n        require (msg.sender == _owner);\n        _;\n    }\n\n    function registerMotorbike(uint _vin, uint _year, string _model, string _make, uint _capacity) public {\n        emit NewBike(_vin, msg.sender);\n        vins.push(_vin);\n        motorbikeMap[_vin] = Bike({\n        vin: _vin, year: _year, model: _model, make: _make, owner: msg.sender, buyer: 0, status: Status.RoadWorthy, price: 0, capacity: _capacity\n        });\n        numMotorbikes++;\n    }\n\n    function sellBike(uint _vin, uint _price) bikeOwnerOnly(motorbikeMap[_vin].owner) roadWorthy(_vin) public {\n        emit ForSale(_vin);\n        motorbikeMap[_vin].status = Status.ForSale;\n        motorbikeMap[_vin].price = _price;\n        motorbikeMap[_vin].buyer = 0;\n    }\n\n    function buyBike(uint vin) public stopInEmergency forSale(vin) paidEnough(motorbikeMap[vin].price) checkValue(vin) payable {\n        emit Sold(vin);\n        motorbikeMap[vin].status = Status.RoadWorthy;\n        motorbikeMap[vin].buyer = msg.sender;\n        address owner = motorbikeMap[vin].owner;\n\n        // Transfer ownership across\n        motorbikeMap[vin].owner = msg.sender;\n\n        // send ether to \"owner\"\n        // Take a 5% fee out of the price\n        uint fee = (motorbikeMap[vin].price).mul(SALE_FEE_PERCENT) / 100;\n\n        emit Fee(fee);\n\n        owner.transfer((motorbikeMap[vin].price).sub(fee));\n    }\n\n    function transferBike(uint _vin, address _newOwner) bikeOwnerOnly(motorbikeMap[_vin].owner) roadWorthy(_vin) stopInEmergency public returns (string) {\n        emit TransferVehicle(_vin);\n        motorbikeMap[_vin].owner = _newOwner;\n        motorbikeMap[_vin].status = Status.RoadWorthy;\n    }\n\n    /* Fetch bike info by VIN */\n    function fetchBike(uint _vin) public view returns (string model, string make, uint vin, uint year, uint status, uint price, address owner, address buyer, uint capacity) {\n        model = motorbikeMap[_vin].model;\n        make = motorbikeMap[_vin].make;\n        vin = motorbikeMap[_vin].vin;\n        year = motorbikeMap[_vin].year;\n        price = motorbikeMap[_vin].price;\n        status = uint(motorbikeMap[_vin].status);\n        owner = motorbikeMap[_vin].owner;\n        buyer = motorbikeMap[_vin].buyer;\n        capacity = motorbikeMap[_vin].capacity;\n        return (model, make, vin, year, status, price, owner, buyer, capacity);\n    }\n\n    function getBikeOwner(uint _vin) public constant returns (address) {\n        address owner = motorbikeMap[_vin].owner;\n        return owner;\n    }\n\n    function getMake(uint _vin) public constant returns (string) {\n        string storage vmake = motorbikeMap[_vin].make;\n        return vmake;\n    }\n\n    function getModel(uint _vin) public constant returns (string) {\n        string storage vmodel = motorbikeMap[_vin].model;\n        return vmodel;\n    }\n\n    function getYear(uint _vin) public constant returns (uint) {\n        uint vyear = motorbikeMap[_vin].year;\n        return vyear;\n    }\n\n    function getVins() public view returns (uint[]) {\n        return vins;\n    }\n\n    // Fallback function - Called if other functions don't match call or\n    // sent ether without data\n    // Typically, called when invalid data is sent\n    // Added so ether sent to this contract is reverted if the contract fails\n    function() public {\n        revert();\n    }\n}",
  "sourcePath": "E:/semester_06/blockchain/Car_LifeCycle/contracts/Car_lifeCycle.sol",
  "compiler": {
    "name": "solc",
    "version": "0.4.23+commit.124ca40d.Emscripten.clang"
  },
  "schemaVersion": "3.0.21",
  "updatedAt": "2020-06-14T15:06:16.121Z",
  "devdoc": {
    "methods": {}
  },
  "userdoc": {
    "methods": {}
  }
}